:100000000C9434000C9451000C9451000C94510049
:100010000C9451000C9451000C9451000C9451001C
:100020000C9451000C9451000C9451000C9451000C
:100030000C9451000C9451000C9451000C945100FC
:100040000C9451000C9451000C9451000C945100EC
:100050000C9451000C9451000C9451000C945100DC
:100060000C9451000C94510011241FBECFEFD8E026
:10007000DEBFCDBF11E0A0E0B1E0EEE0F1E002C0F4
:1000800005900D92A030B107D9F721E0A0E0B1E0D2
:1000900001C01D92A230B207E1F70E946D000C94DE
:1000A00085000C9400008BB188688BB985B1887F7E
:1000B00085B95A9808958093C4009093C500E1ECE7
:1000C000F0E08081886180830895E0ECF0E0808139
:1000D0008823ECF78091C60008950E94530080E8C1
:1000E00095E20E945B00C1E0D0E00E946500813390
:1000F00029F4D0930101C0930001F7CF8233A9F70F
:0E0100001092010110920001F0CFF894FFCF91
:00000001FF
