:100000000C9434000C9451000C9451000C94510049
:100010000C9451000C9451000C9451000C9451001C
:100020000C9451000C9451000C9451000C9451000C
:100030000C9451000C9451000C9451000C945100FC
:100040000C9451000C9451000C9451000C945100EC
:100050000C9451000C9451000C9451000C945100DC
:100060000C9451000C94510011241FBECFEFD8E026
:10007000DEBFCDBF11E0A0E0B1E0E6E9F6E002C0EE
:1000800005900D92AA36B107D9F721E0AAE6B1E0B2
:1000900001C01D92A437B207E1F70E9490000C94B2
:1000A00049030C9400008AB18C6F8AB98BB18B72B2
:1000B0008BB9089584B5836084BD84B5806A84BD9E
:1000C00085B5846085BD16BC17BC18BC08959C011D
:1000D00080E286BD46B5469FC001479F900D112422
:1000E0006FEF70E00E94FB022330310511F467BD11
:1000F00008952530310509F468BD08958093C40042
:100100009093C500E1ECF0E08081886180830895E0
:10011000E0ECF0E080818823ECF78091C600089540
:10012000CF93DF93CDB7DEB7A0970FB6F894DEBFBD
:100130000FBECDBF0E9453000E945A0080E895E296
:100140000E947E000E946D0288E893E190936F0107
:1001500080936E019093710180937001FF24FA9453
:100160000F2EF9EDAF2EBB24B394F02D0F2EF4E338
:10017000CF2EFEEFDF2EF02D0FEF10E00E949B023E
:1001800080E091E00E94E102892BD9F080E091E0CB
:100190000E94A6028983CE0101960E9423039093B8
:1001A000710180937001CE0106960E942303909303
:1001B0006F0180936E018FE19EE40197F1F700C01B
:1001C000000080917001909171019C01215D374088
:1001D000273E334020F4E0ECF0E08081FECF895BE5
:1001E0009B40873E934020F4E0ECF0E08081FECF1E
:1001F00080916E0190916F018C3C41E09407D8F49E
:100200005A9A5C985E9A5F9820916E0130916F01C6
:100210002C5C3140F29EC001F39E900D1124B6017A
:100220000E94FB0270936D0160936C0170936B01EF
:1002300060936A0128C087529240853B9340D8F46E
:100240005A985C9A5E985F9A20916E0130916F0186
:1002500026523240F29EC001F39E900D1124B5014A
:100260000E94FB0270936D0160936C0170936B01AF
:1002700060936A0108C010926D0110926C01109297
:100280006B0110926A0120917001309171012C3C38
:1002900041E0340768F5A9014C5C5140F49EC0016F
:1002A000F59E900D1124B6010E94FB0240916C0155
:1002B00050916D01460F571F50936D0140936C0193
:1002C00080916A0190916B01861B970B90936B0153
:1002D00080936A01552324F410926D0110926C01F1
:1002E0008F3F910529F024F010936B0100936A0170
:1002F000C90187529240853B9340B8F5265232405F
:10030000F29EC001F39E900D1124B5010E94FB02E4
:1003100020916C0130916D01261B370B30936D01DC
:1003200020936C0180916A0190916B01860F971F59
:1003300090936B0180936A012F3F310541F03CF0AF
:1003400010936D0100936C019923D4F402C099239A
:1003500064F410926B0110926A0180916C0190918B
:100360006D018634910544F012C080916C0190912A
:100370006D018634910524F410926D0110926C0188
:1003800080916A0190916B018634910524F410925A
:100390006B0110926A0160916C0170916D0183E0B4
:1003A00090E00E94670060916A0170916B0185E0A6
:1003B00090E00E9467000E948800E82E82E3E81621
:1003C00051F00E949B0291E3E912D8CE80E491E0C3
:1003D0000E94C402D3CE0E949B0280E291E00E9460
:1003E000A602CCCE98E0882314F42B9A01C02C9856
:1003F00000C000C00000880F2D9A00C000C000009F
:1004000084602D98915079F7089529980E94F201FF
:1004100080E00E94F201299A0895CF93DF93D62FAE
:1004200029980E94F201C82F8D2F0E94F201299A6B
:100430008C2FDF91CF910895DF92EF92FF920F936F
:100440001F93CF93DF937B01142F29980E94F20111
:10045000D82E112379F0E7011150012F10E00F5F22
:100460001F4F0E0D1F1D80E00E94F2018993C017DF
:10047000D107C9F7299A8D2DDF91CF911F910F9147
:10048000FF90EF90DF900895DF92EF92FF920F932D
:100490001F93CF93DF93D62EC72F7A0129980E94FE
:1004A000F201D82FE114F10471F00D2D1C2FC0E0E2
:1004B000F80181918F010E94F201CF5F8C2F90E0B3
:1004C0008E159F05A8F3299A8D2FDF91CF911F914B
:1004D0000F91FF90EF90DF90089581E28A95F1F7F8
:1004E00000005898299A2D9845E050E065E671E0A3
:1004F00080E30E94440245E050E060E671E08AE259
:100500000E94440261E081E20E940D0261E082E209
:100510000E940D0260E085E20E940D0260E281E32C
:100520000E940D0267E086E20E940D026EE080E20A
:100530000E940D02089528986FE080E20E940D024B
:10054000289A8BE28A95F1F7000008950F931F9384
:10055000CF93DF938C0187E00E940502C82F86FFAE
:1005600008C0289840E2B80181E60E941C02D1E050
:1005700001C0D0E06C2F87E20E940D028D2FDF9129
:10058000CF911F910F910895CF93DF93EC0128989D
:1005900045E050E065E671E08AE20E94440240E2F4
:1005A00050E0BE0180EA0E9444026EE080E20E94B8
:1005B0000D02289ADF91CF9108958FEF0E94F201EA
:1005C0000895CF93DF93EC0187E10E94050284FD3B
:1005D0000AC0209759F00E94DD02869587708883B3
:1005E00081E090E005C080E090E002C081E090E012
:1005F000DF91CF91089597FB072E16F4009407D052
:1006000077FD09D00E940F0307FC05D03EF49095BA
:1006100081959F4F0895709561957F4F0895AA1B0E
:10062000BB1B51E107C0AA1FBB1FA617B70710F0DD
:10063000A61BB70B881F991F5A95A9F7809590950F
:10064000BC01CD010895FC0188279927E8942191E8
:100650002032E9F3293010F02E30C8F32B3241F06C
:100660002D3239F4689404C00E944103820F911D19
:10067000219120532A30C0F31EF4909581959F4F0D
:1006800008957AE0979F902D879F802D910D1124DA
:060690000895F894FFCF6D
:1006960001020304050607080910111213141516A2
:1006A60017181920212223242526272829303132FC
:1006B6003435360000000000000000000000000095
:1006C6000000000000000000000000000000000024
:1006D600313233000000000000000000000000007E
:1006E6000000000000000000000000000000000004
:0A06F60034431010013443101001CA
:00000001FF
