S013000042444B5F43616D5F7461792E7372656323
S11300000C9434000C9451000C9451000C94510045
S11300100C9451000C9451000C9451000C94510018
S11300200C9451000C9451000C9451000C94510008
S11300300C9451000C9451000C9451000C945100F8
S11300400C9451000C9451000C9451000C945100E8
S11300500C9451000C9451000C9451000C945100D8
S11300600C9451000C94510011241FBECFEFD8E022
S1130070DEBFCDBF11E0A0E0B1E0E4E0F5E002C0F6
S113008005900D92A234B107D9F721E0A2E4B1E0C2
S113009001C01D92A037B207E1F70E9482000C94C0
S11300A080020C9400008AB18C638AB98AB18F7380
S11300B08AB95A985C985D985B9A089517B887E84E
S11300C080937A0080E480937C000895ECE7F0E06C
S11300D090818F70982B9083EAE7F0E080818064B0
S11300E08083808184FFFDCF8AE18A95F1F700C087
S11300F0209178008091790090E0982F8827820FD2
S1130100911D0895CF93DF93CDB7DEB7A0970FB6B7
S1130110F894DEBF0FBECDBF0E9453000E945E0064
S11301200E9485010E94BE0180E00E9466009093B7
S11301306D0180936C0181E00E94660090936B01D5
S113014080936A0144E066E471E080916C019091CF
S11301506D010E94430244E062E471E080916A010F
S113016090916B010E94430266E471E08AE491E09D
S11301700E943C0262E471E08AE491E00E943C0245
S11301808AE491E00E94E7015E990FC08FE39CE945
S11301900197F1F700C000005E9907C05D9A8CE0FA
S11301A091E00E94E7015E9BFECF5F990FC08FE351
S11301B09CE90197F1F700C000005F9907C05D98C2
S11301C080E091E00E94E7015F9BFECF0E94B301B3
S11301D088E191E00E940402892B09F4A3CF88E10D
S11301E091E00E94C9018983CE0101960E941E02FA
S11301F090936F0180936E018B37910509F45D9A9A
S113020080916E0190916F01883C914009F08ACFF2
S11302105C9A88CF98E0882314F42B9A01C02C9818
S113022000C000C00000880F2D9A00C000C000006C
S113023084602D98915079F7089529980E940A01B5
S113024080E00E940A01299A0895CF93DF93D62F64
S113025029980E940A01C82F8D2F0E940A01299A09
S11302608C2FDF91CF910895DF92EF92FF920F933D
S11302701F93CF93DF937B01142F29980E940A01C7
S1130280D82E112379F0E7011150012F10E00F5FF0
S11302901F4F0E0D1F1D80E00E940A018993C01795
S11302A0D107C9F7299A8D2DDF91CF911F910F9115
S11302B0FF90EF90DF900895DF92EF92FF920F93FB
S11302C01F93CF93DF93D62EC72F7A0129980E94CC
S11302D00A01D82FE114F10471F00D2D1C2FC0E098
S11302E0F80181918F010E940A01CF5F8C2F90E069
S11302F08E159F05A8F3299A8D2FDF91CF911F9119
S11303000F91FF90EF90DF90089581E28A95F1F7C5
S113031000005898299A2D9845E050E06DE371E06B
S113032080E30E945C0145E050E068E371E08AE20A
S11303300E945C0161E081E20E94250161E082E2A9
S11303400E94250160E085E20E94250160E281E3CC
S11303500E94250167E086E20E9425016EE080E2AA
S11303600E942501089528986FE080E20E942501EB
S1130370289A8BE28A95F1F70000089528986EE098
S113038080E20E942501289A8BE28A95F1F7000009
S113039008950F931F93CF93DF938C0187E00E94FE
S11303A01D01C82F86FF08C0289840E2B80181E6E5
S11303B00E943401D1E001C0D0E06C2F87E20E949A
S11303C025018D2FDF91CF911F910F910895CF9328
S11303D0DF93EC01289845E050E06DE371E08AE298
S11303E00E945C0140E250E0BE0180EA0E945C0190
S11303F06EE080E20E942501289ADF91CF91089552
S11304008FEF0E940A010895CF93DF93EC0187E1F7
S11304100E941D0184FD0AC0209759F00E94000229
S113042086958770888381E090E005C080E090E045
S113043002C081E090E0DF91CF910895FC0188270C
S11304409927E89421912032E9F3293010F02E30D5
S1130450C8F32B3241F02D3239F4689404C00E9461
S11304604E02820F911D219120532A30C0F31EF4B5
S1130470909581959F4F0895FB01DC0101900D92A9
S11304800020E1F70895BB274A3031F4992322F480
S1130490BDE2909581959F4F0C9457027AE0979F07
S11304A0902D879F802D910D11240895BB27FB016A
S11304B05527AA27880F991FAA1FA41710F0A41B59
S11304C083955051B9F7A05DAA3308F0A95DA193B3
S11304D0009779F7B111B1931192CB010C9470028A
S11304E0DC01FC01672F71917723E1F7329704C097
S11304F07C916D9370836291AE17BF07C8F3089522
S1070500F894FFCF99
S1130504333530302020203335303000323530302C
S11305142020203235303000010203040506070888
S11305240910111213141516171819202122232443
S1130534252627282930313234431010013443103E
S10505441001A0
S9030000FC
